{
  "contractName": "TodoLists",
  "abi": [
    {
      "stateMutability": "payable",
      "type": "fallback"
    },
    {
      "inputs": [
        {
          "internalType": "address",
          "name": "",
          "type": "address"
        },
        {
          "internalType": "uint256",
          "name": "",
          "type": "uint256"
        }
      ],
      "name": "address2ListIds",
      "outputs": [
        {
          "internalType": "string",
          "name": "",
          "type": "string"
        }
      ],
      "stateMutability": "view",
      "type": "function"
    },
    {
      "inputs": [
        {
          "internalType": "string",
          "name": "",
          "type": "string"
        },
        {
          "internalType": "uint256",
          "name": "",
          "type": "uint256"
        }
      ],
      "name": "id2TodoItems",
      "outputs": [
        {
          "internalType": "string",
          "name": "id",
          "type": "string"
        },
        {
          "internalType": "string",
          "name": "title",
          "type": "string"
        },
        {
          "internalType": "string",
          "name": "description",
          "type": "string"
        },
        {
          "internalType": "bool",
          "name": "isDone",
          "type": "bool"
        }
      ],
      "stateMutability": "view",
      "type": "function"
    },
    {
      "inputs": [
        {
          "internalType": "uint256",
          "name": "",
          "type": "uint256"
        }
      ],
      "name": "listIds",
      "outputs": [
        {
          "internalType": "string",
          "name": "",
          "type": "string"
        }
      ],
      "stateMutability": "view",
      "type": "function"
    },
    {
      "inputs": [
        {
          "internalType": "string",
          "name": "",
          "type": "string"
        }
      ],
      "name": "listIds2exists",
      "outputs": [
        {
          "internalType": "bool",
          "name": "",
          "type": "bool"
        }
      ],
      "stateMutability": "view",
      "type": "function"
    },
    {
      "inputs": [],
      "name": "todoCnt",
      "outputs": [
        {
          "internalType": "uint256",
          "name": "",
          "type": "uint256"
        }
      ],
      "stateMutability": "view",
      "type": "function"
    },
    {
      "inputs": [
        {
          "internalType": "address",
          "name": "",
          "type": "address"
        }
      ],
      "name": "user2used",
      "outputs": [
        {
          "internalType": "bool",
          "name": "",
          "type": "bool"
        }
      ],
      "stateMutability": "view",
      "type": "function"
    },
    {
      "inputs": [
        {
          "internalType": "uint256",
          "name": "",
          "type": "uint256"
        }
      ],
      "name": "users",
      "outputs": [
        {
          "internalType": "address",
          "name": "",
          "type": "address"
        }
      ],
      "stateMutability": "view",
      "type": "function"
    },
    {
      "stateMutability": "payable",
      "type": "receive"
    },
    {
      "inputs": [
        {
          "internalType": "string",
          "name": "_id",
          "type": "string"
        }
      ],
      "name": "addList",
      "outputs": [],
      "stateMutability": "nonpayable",
      "type": "function"
    },
    {
      "inputs": [
        {
          "internalType": "string",
          "name": "_id",
          "type": "string"
        }
      ],
      "name": "removeList",
      "outputs": [],
      "stateMutability": "nonpayable",
      "type": "function"
    },
    {
      "inputs": [],
      "name": "getUserIds",
      "outputs": [
        {
          "internalType": "string[]",
          "name": "",
          "type": "string[]"
        }
      ],
      "stateMutability": "view",
      "type": "function"
    },
    {
      "inputs": [
        {
          "internalType": "string",
          "name": "listid",
          "type": "string"
        },
        {
          "internalType": "string",
          "name": "title",
          "type": "string"
        },
        {
          "internalType": "string",
          "name": "description",
          "type": "string"
        }
      ],
      "name": "addTodo",
      "outputs": [],
      "stateMutability": "nonpayable",
      "type": "function"
    },
    {
      "inputs": [
        {
          "internalType": "string",
          "name": "todoId",
          "type": "string"
        },
        {
          "internalType": "string",
          "name": "listid",
          "type": "string"
        },
        {
          "internalType": "string",
          "name": "title",
          "type": "string"
        },
        {
          "internalType": "string",
          "name": "description",
          "type": "string"
        }
      ],
      "name": "updateTodo",
      "outputs": [],
      "stateMutability": "nonpayable",
      "type": "function"
    },
    {
      "inputs": [
        {
          "internalType": "string",
          "name": "todoId",
          "type": "string"
        },
        {
          "internalType": "string",
          "name": "listid",
          "type": "string"
        }
      ],
      "name": "deleteTodo",
      "outputs": [],
      "stateMutability": "nonpayable",
      "type": "function"
    },
    {
      "inputs": [
        {
          "internalType": "address",
          "name": "user",
          "type": "address"
        }
      ],
      "name": "getTodos",
      "outputs": [
        {
          "components": [
            {
              "internalType": "string",
              "name": "id",
              "type": "string"
            },
            {
              "components": [
                {
                  "internalType": "string",
                  "name": "id",
                  "type": "string"
                },
                {
                  "internalType": "string",
                  "name": "title",
                  "type": "string"
                },
                {
                  "internalType": "string",
                  "name": "description",
                  "type": "string"
                },
                {
                  "internalType": "bool",
                  "name": "isDone",
                  "type": "bool"
                }
              ],
              "internalType": "struct TodoLists.TodoItem[]",
              "name": "todos",
              "type": "tuple[]"
            }
          ],
          "internalType": "struct TodoLists.TodoList[]",
          "name": "",
          "type": "tuple[]"
        }
      ],
      "stateMutability": "view",
      "type": "function"
    }
  ],
  "bytecode": "0x6080604052600060035534801561001557600080fd5b50612d83806100256000396000f3fe6080604052600436106100e15760003560e01c806380eda6ad1161007f578063b9cdbde911610059578063b9cdbde914610301578063da41e67a1461033e578063e01da11e14610367578063e9c36b0614610392576100e8565b806380eda6ad1461025b578063863ad5011461029b578063a6ecdc63146102d8576100e8565b8063365b98b2116100bb578063365b98b21461017b578063529900d5146101b85780635c10955d146101f55780636a73d9d11461021e576100e8565b806302209d96146100ea5780631b3b7e861461011357806324c91ac91461013e576100e8565b366100e857005b005b3480156100f657600080fd5b50610111600480360381019061010c9190611f47565b6103bb565b005b34801561011f57600080fd5b50610128610669565b6040516101359190611fa9565b60405180910390f35b34801561014a57600080fd5b5061016560048036038101906101609190611ff0565b61066f565b60405161017291906120a5565b60405180910390f35b34801561018757600080fd5b506101a2600480360381019061019d9190611ff0565b61071b565b6040516101af9190612108565b60405180910390f35b3480156101c457600080fd5b506101df60048036038101906101da919061214f565b61075a565b6040516101ec9190612197565b60405180910390f35b34801561020157600080fd5b5061021c600480360381019061021791906121b2565b61077a565b005b34801561022a57600080fd5b5061024560048036038101906102409190612259565b6108fe565b60405161025291906120a5565b60405180910390f35b34801561026757600080fd5b50610282600480360381019061027d9190612299565b6109b7565b60405161029294939291906122f5565b60405180910390f35b3480156102a757600080fd5b506102c260048036038101906102bd9190611f47565b610bbf565b6040516102cf9190612197565b60405180910390f35b3480156102e457600080fd5b506102ff60048036038101906102fa919061234f565b610bf5565b005b34801561030d57600080fd5b506103286004803603810190610323919061214f565b610d9e565b60405161033591906126b8565b60405180910390f35b34801561034a57600080fd5b5061036560048036038101906103609190611f47565b6111a9565b005b34801561037357600080fd5b5061037c61166b565b604051610389919061279c565b60405180910390f35b34801561039e57600080fd5b506103b960048036038101906103b491906127be565b611780565b005b600115156001826040516103cf9190612872565b908152602001604051809103902060009054906101000a900460ff161515141561042e576040517f08c379a0000000000000000000000000000000000000000000000000000000008152600401610425906128d5565b60405180910390fd5b6000803373ffffffffffffffffffffffffffffffffffffffff1673ffffffffffffffffffffffffffffffffffffffff168152602001908152602001600020819080600181540180825580915050600190039060005260206000200160009091909190915090805190602001906104a5929190611bd6565b5060001515600260003373ffffffffffffffffffffffffffffffffffffffff1673ffffffffffffffffffffffffffffffffffffffff16815260200190815260200160002060009054906101000a900460ff16151514156105bb576001600260003373ffffffffffffffffffffffffffffffffffffffff1673ffffffffffffffffffffffffffffffffffffffff16815260200190815260200160002060006101000a81548160ff0219169083151502179055506005339080600181540180825580915050600190039060005260206000200160009091909190916101000a81548173ffffffffffffffffffffffffffffffffffffffff021916908373ffffffffffffffffffffffffffffffffffffffff1602179055505b600015156001826040516105cf9190612872565b908152602001604051809103902060009054906101000a900460ff161515141561066657600180826040516106049190612872565b908152602001604051809103902060006101000a81548160ff021916908315150217905550600481908060018154018082558091505060019003906000526020600020016000909190919091509080519060200190610664929190611bd6565b505b50565b60035481565b6004818154811061067f57600080fd5b90600052602060002001600091509050805461069a90612924565b80601f01602080910402602001604051908101604052809291908181526020018280546106c690612924565b80156107135780601f106106e857610100808354040283529160200191610713565b820191906000526020600020905b8154815290600101906020018083116106f657829003601f168201915b505050505081565b6005818154811061072b57600080fd5b906000526020600020016000915054906101000a900473ffffffffffffffffffffffffffffffffffffffff1681565b60026020528060005260406000206000915054906101000a900460ff1681565b6000151560018460405161078e9190612872565b908152602001604051809103902060009054906101000a900460ff16151514156107ed576040517f08c379a00000000000000000000000000000000000000000000000000000000081526004016107e4906129a2565b60405180910390fd5b60006040518060800160405280610805600354611a4d565b815260200184815260200183815260200160001515815250905060036000815480929190610832906129f1565b91905055506006846040516108479190612872565b9081526020016040518091039020819080600181540180825580915050600190039060005260206000209060040201600090919091909150600082015181600001908051906020019061089b929190611bd6565b5060208201518160010190805190602001906108b8929190611bd6565b5060408201518160020190805190602001906108d5929190611bd6565b5060608201518160030160006101000a81548160ff021916908315150217905550505050505050565b6000602052816000526040600020818154811061091a57600080fd5b9060005260206000200160009150915050805461093690612924565b80601f016020809104026020016040519081016040528092919081815260200182805461096290612924565b80156109af5780601f10610984576101008083540402835291602001916109af565b820191906000526020600020905b81548152906001019060200180831161099257829003601f168201915b505050505081565b60068280516020810182018051848252602083016020850120818352809550505050505081815481106109e957600080fd5b906000526020600020906004020160009150915050806000018054610a0d90612924565b80601f0160208091040260200160405190810160405280929190818152602001828054610a3990612924565b8015610a865780601f10610a5b57610100808354040283529160200191610a86565b820191906000526020600020905b815481529060010190602001808311610a6957829003601f168201915b505050505090806001018054610a9b90612924565b80601f0160208091040260200160405190810160405280929190818152602001828054610ac790612924565b8015610b145780601f10610ae957610100808354040283529160200191610b14565b820191906000526020600020905b815481529060010190602001808311610af757829003601f168201915b505050505090806002018054610b2990612924565b80601f0160208091040260200160405190810160405280929190818152602001828054610b5590612924565b8015610ba25780601f10610b7757610100808354040283529160200191610ba2565b820191906000526020600020905b815481529060010190602001808311610b8557829003601f168201915b5050505050908060030160009054906101000a900460ff16905084565b6001818051602081018201805184825260208301602085012081835280955050505050506000915054906101000a900460ff1681565b60001515600184604051610c099190612872565b908152602001604051809103902060009054906101000a900460ff1615151415610c68576040517f08c379a0000000000000000000000000000000000000000000000000000000008152600401610c5f906129a2565b60405180910390fd5b6000600684604051610c7a9190612872565b9081526020016040518091039020905060005b8180549050811015610d965785604051602001610caa9190612872565b60405160208183030381529060405280519060200120828281548110610cd357610cd2612a3a565b5b9060005260206000209060040201600001604051602001610cf49190612afd565b604051602081830303815290604052805190602001201415610d835783828281548110610d2457610d23612a3a565b5b90600052602060002090600402016001019080519060200190610d48929190611bd6565b5082828281548110610d5d57610d5c612a3a565b5b90600052602060002090600402016002019080519060200190610d81929190611bd6565b505b8080610d8e906129f1565b915050610c8d565b505050505050565b606060008060008473ffffffffffffffffffffffffffffffffffffffff1673ffffffffffffffffffffffffffffffffffffffff16815260200190815260200160002090506000818054905067ffffffffffffffff811115610e0257610e01611e1c565b5b604051908082528060200260200182016040528015610e3b57816020015b610e28611c5c565b815260200190600190039081610e205790505b50905060005b828054905081101561119e5760006006848381548110610e6457610e63612a3a565b5b90600052602060002001604051610e7b9190612afd565b908152602001604051809103902090506040518060400160405280858481548110610ea957610ea8612a3a565b5b906000526020600020018054610ebe90612924565b80601f0160208091040260200160405190810160405280929190818152602001828054610eea90612924565b8015610f375780601f10610f0c57610100808354040283529160200191610f37565b820191906000526020600020905b815481529060010190602001808311610f1a57829003601f168201915b5050505050815260200182805480602002602001604051908101604052809291908181526020016000905b828210156111655783829060005260206000209060040201604051806080016040529081600082018054610f9590612924565b80601f0160208091040260200160405190810160405280929190818152602001828054610fc190612924565b801561100e5780601f10610fe35761010080835404028352916020019161100e565b820191906000526020600020905b815481529060010190602001808311610ff157829003601f168201915b5050505050815260200160018201805461102790612924565b80601f016020809104026020016040519081016040528092919081815260200182805461105390612924565b80156110a05780601f10611075576101008083540402835291602001916110a0565b820191906000526020600020905b81548152906001019060200180831161108357829003601f168201915b505050505081526020016002820180546110b990612924565b80601f01602080910402602001604051908101604052809291908181526020018280546110e590612924565b80156111325780601f1061110757610100808354040283529160200191611132565b820191906000526020600020905b81548152906001019060200180831161111557829003601f168201915b505050505081526020016003820160009054906101000a900460ff16151515158152505081526020019060010190610f62565b5050505081525083838151811061117f5761117e612a3a565b5b6020026020010181905250508080611196906129f1565b915050610e41565b508092505050919050565b600260003373ffffffffffffffffffffffffffffffffffffffff1673ffffffffffffffffffffffffffffffffffffffff16815260200190815260200160002060009054906101000a900460ff16611235576040517f08c379a000000000000000000000000000000000000000000000000000000000815260040161122c90612b60565b60405180910390fd5b60008060003373ffffffffffffffffffffffffffffffffffffffff1673ffffffffffffffffffffffffffffffffffffffff168152602001908152602001600020905060005b818054905081101561166657826040516020016112979190612872565b604051602081830303815290604052805190602001208282815481106112c0576112bf612a3a565b5b906000526020600020016040516020016112da9190612afd565b6040516020818303038152906040528051906020012014156116535781600183805490506113089190612b80565b8154811061131957611318612a3a565b5b9060005260206000200182828154811061133657611335612a3a565b5b9060005260206000200190805461134c90612924565b611357929190611c76565b50600060068460405161136a9190612872565b908152602001604051809103902090505b6000818054905011156113fb578080548061139957611398612bb4565b5b6001900381819060005260206000209060040201600080820160006113be9190611d03565b6001820160006113ce9190611d03565b6002820160006113de9190611d03565b6003820160006101000a81549060ff02191690555050905561137b565b8280548061140c5761140b612bb4565b5b6001900381819060005260206000200160006114289190611d03565b905560008380549050141561161a576000600260003373ffffffffffffffffffffffffffffffffffffffff1673ffffffffffffffffffffffffffffffffffffffff16815260200190815260200160002060006101000a81548160ff02191690831515021790555060005b600580549050811015611618573373ffffffffffffffffffffffffffffffffffffffff16600582815481106114ca576114c9612a3a565b5b9060005260206000200160009054906101000a900473ffffffffffffffffffffffffffffffffffffffff1673ffffffffffffffffffffffffffffffffffffffff16141561160557600560016005805490506115259190612b80565b8154811061153657611535612a3a565b5b9060005260206000200160009054906101000a900473ffffffffffffffffffffffffffffffffffffffff166005828154811061157557611574612a3a565b5b9060005260206000200160006101000a81548173ffffffffffffffffffffffffffffffffffffffff021916908373ffffffffffffffffffffffffffffffffffffffff16021790555060058054806115cf576115ce612bb4565b5b6001900381819060005260206000200160006101000a81549073ffffffffffffffffffffffffffffffffffffffff021916905590555b8080611610906129f1565b915050611492565b505b600060018560405161162c9190612872565b908152602001604051809103902060006101000a81548160ff021916908315150217905550505b808061165e906129f1565b91505061127a565b505050565b60606000803373ffffffffffffffffffffffffffffffffffffffff1673ffffffffffffffffffffffffffffffffffffffff168152602001908152602001600020805480602002602001604051908101604052809291908181526020016000905b828210156117775783829060005260206000200180546116ea90612924565b80601f016020809104026020016040519081016040528092919081815260200182805461171690612924565b80156117635780601f1061173857610100808354040283529160200191611763565b820191906000526020600020905b81548152906001019060200180831161174657829003601f168201915b5050505050815260200190600101906116cb565b50505050905090565b600015156001826040516117949190612872565b908152602001604051809103902060009054906101000a900460ff16151514156117f3576040517f08c379a00000000000000000000000000000000000000000000000000000000081526004016117ea906129a2565b60405180910390fd5b60006006826040516118059190612872565b9081526020016040518091039020905060008180549050141561185d576040517f08c379a000000000000000000000000000000000000000000000000000000000815260040161185490612c2f565b60405180910390fd5b60005b8180549050811015611a47578360405160200161187d9190612872565b604051602081830303815290604052805190602001208282815481106118a6576118a5612a3a565b5b90600052602060002090600402016000016040516020016118c79190612afd565b604051602081830303815290604052805190602001201415611a345781600183805490506118f59190612b80565b8154811061190657611905612a3a565b5b906000526020600020906004020182828154811061192757611926612a3a565b5b9060005260206000209060040201600082018160000190805461194990612924565b611954929190611d43565b50600182018160010190805461196990612924565b611974929190611d43565b50600282018160020190805461198990612924565b611994929190611d43565b506003820160009054906101000a900460ff168160030160006101000a81548160ff021916908315150217905550905050818054806119d6576119d5612bb4565b5b6001900381819060005260206000209060040201600080820160006119fb9190611d03565b600182016000611a0b9190611d03565b600282016000611a1b9190611d03565b6003820160006101000a81549060ff0219169055505090555b8080611a3f906129f1565b915050611860565b50505050565b60606000821415611a95576040518060400160405280600181526020017f30000000000000000000000000000000000000000000000000000000000000008152509050611bd1565b600082905060005b60008214611ac7578080611ab0906129f1565b915050600a82611ac09190612c7e565b9150611a9d565b60008167ffffffffffffffff811115611ae357611ae2611e1c565b5b6040519080825280601f01601f191660200182016040528015611b155781602001600182028036833780820191505090505b50905060008290505b60008614611bc957600181611b339190612b80565b90506000600a8088611b459190612c7e565b611b4f9190612caf565b87611b5a9190612b80565b6030611b669190612d16565b905060008160f81b905080848481518110611b8457611b83612a3a565b5b60200101907effffffffffffffffffffffffffffffffffffffffffffffffffffffffffffff1916908160001a905350600a88611bc09190612c7e565b97505050611b1e565b819450505050505b919050565b828054611be290612924565b90600052602060002090601f016020900481019282611c045760008555611c4b565b82601f10611c1d57805160ff1916838001178555611c4b565b82800160010185558215611c4b579182015b82811115611c4a578251825591602001919060010190611c2f565b5b509050611c589190611dd0565b5090565b604051806040016040528060608152602001606081525090565b828054611c8290612924565b90600052602060002090601f016020900481019282611ca45760008555611cf2565b82601f10611cb55780548555611cf2565b82800160010185558215611cf257600052602060002091601f016020900482015b82811115611cf1578254825591600101919060010190611cd6565b5b509050611cff9190611dd0565b5090565b508054611d0f90612924565b6000825580601f10611d215750611d40565b601f016020900490600052602060002090810190611d3f9190611dd0565b5b50565b828054611d4f90612924565b90600052602060002090601f016020900481019282611d715760008555611dbf565b82601f10611d825780548555611dbf565b82800160010185558215611dbf57600052602060002091601f016020900482015b82811115611dbe578254825591600101919060010190611da3565b5b509050611dcc9190611dd0565b5090565b5b80821115611de9576000816000905550600101611dd1565b5090565b6000604051905090565b600080fd5b600080fd5b600080fd5b600080fd5b6000601f19601f8301169050919050565b7f4e487b7100000000000000000000000000000000000000000000000000000000600052604160045260246000fd5b611e5482611e0b565b810181811067ffffffffffffffff82111715611e7357611e72611e1c565b5b80604052505050565b6000611e86611ded565b9050611e928282611e4b565b919050565b600067ffffffffffffffff821115611eb257611eb1611e1c565b5b611ebb82611e0b565b9050602081019050919050565b82818337600083830152505050565b6000611eea611ee584611e97565b611e7c565b905082815260208101848484011115611f0657611f05611e06565b5b611f11848285611ec8565b509392505050565b600082601f830112611f2e57611f2d611e01565b5b8135611f3e848260208601611ed7565b91505092915050565b600060208284031215611f5d57611f5c611df7565b5b600082013567ffffffffffffffff811115611f7b57611f7a611dfc565b5b611f8784828501611f19565b91505092915050565b6000819050919050565b611fa381611f90565b82525050565b6000602082019050611fbe6000830184611f9a565b92915050565b611fcd81611f90565b8114611fd857600080fd5b50565b600081359050611fea81611fc4565b92915050565b60006020828403121561200657612005611df7565b5b600061201484828501611fdb565b91505092915050565b600081519050919050565b600082825260208201905092915050565b60005b8381101561205757808201518184015260208101905061203c565b83811115612066576000848401525b50505050565b60006120778261201d565b6120818185612028565b9350612091818560208601612039565b61209a81611e0b565b840191505092915050565b600060208201905081810360008301526120bf818461206c565b905092915050565b600073ffffffffffffffffffffffffffffffffffffffff82169050919050565b60006120f2826120c7565b9050919050565b612102816120e7565b82525050565b600060208201905061211d60008301846120f9565b92915050565b61212c816120e7565b811461213757600080fd5b50565b60008135905061214981612123565b92915050565b60006020828403121561216557612164611df7565b5b60006121738482850161213a565b91505092915050565b60008115159050919050565b6121918161217c565b82525050565b60006020820190506121ac6000830184612188565b92915050565b6000806000606084860312156121cb576121ca611df7565b5b600084013567ffffffffffffffff8111156121e9576121e8611dfc565b5b6121f586828701611f19565b935050602084013567ffffffffffffffff81111561221657612215611dfc565b5b61222286828701611f19565b925050604084013567ffffffffffffffff81111561224357612242611dfc565b5b61224f86828701611f19565b9150509250925092565b600080604083850312156122705761226f611df7565b5b600061227e8582860161213a565b925050602061228f85828601611fdb565b9150509250929050565b600080604083850312156122b0576122af611df7565b5b600083013567ffffffffffffffff8111156122ce576122cd611dfc565b5b6122da85828601611f19565b92505060206122eb85828601611fdb565b9150509250929050565b6000608082019050818103600083015261230f818761206c565b90508181036020830152612323818661206c565b90508181036040830152612337818561206c565b90506123466060830184612188565b95945050505050565b6000806000806080858703121561236957612368611df7565b5b600085013567ffffffffffffffff81111561238757612386611dfc565b5b61239387828801611f19565b945050602085013567ffffffffffffffff8111156123b4576123b3611dfc565b5b6123c087828801611f19565b935050604085013567ffffffffffffffff8111156123e1576123e0611dfc565b5b6123ed87828801611f19565b925050606085013567ffffffffffffffff81111561240e5761240d611dfc565b5b61241a87828801611f19565b91505092959194509250565b600081519050919050565b600082825260208201905092915050565b6000819050602082019050919050565b600082825260208201905092915050565b600061246e8261201d565b6124788185612452565b9350612488818560208601612039565b61249181611e0b565b840191505092915050565b600081519050919050565b600082825260208201905092915050565b6000819050602082019050919050565b6124d18161217c565b82525050565b600060808301600083015184820360008601526124f48282612463565b9150506020830151848203602086015261250e8282612463565b915050604083015184820360408601526125288282612463565b915050606083015161253d60608601826124c8565b508091505092915050565b600061255483836124d7565b905092915050565b6000602082019050919050565b60006125748261249c565b61257e81856124a7565b935083602082028501612590856124b8565b8060005b858110156125cc57848403895281516125ad8582612548565b94506125b88361255c565b925060208a01995050600181019050612594565b50829750879550505050505092915050565b600060408301600083015184820360008601526125fb8282612463565b915050602083015184820360208601526126158282612569565b9150508091505092915050565b600061262e83836125de565b905092915050565b6000602082019050919050565b600061264e82612426565b6126588185612431565b93508360208202850161266a85612442565b8060005b858110156126a657848403895281516126878582612622565b945061269283612636565b925060208a0199505060018101905061266e565b50829750879550505050505092915050565b600060208201905081810360008301526126d28184612643565b905092915050565b600081519050919050565b600082825260208201905092915050565b6000819050602082019050919050565b60006127128383612463565b905092915050565b6000602082019050919050565b6000612732826126da565b61273c81856126e5565b93508360208202850161274e856126f6565b8060005b8581101561278a578484038952815161276b8582612706565b94506127768361271a565b925060208a01995050600181019050612752565b50829750879550505050505092915050565b600060208201905081810360008301526127b68184612727565b905092915050565b600080604083850312156127d5576127d4611df7565b5b600083013567ffffffffffffffff8111156127f3576127f2611dfc565b5b6127ff85828601611f19565b925050602083013567ffffffffffffffff8111156128205761281f611dfc565b5b61282c85828601611f19565b9150509250929050565b600081905092915050565b600061284c8261201d565b6128568185612836565b9350612866818560208601612039565b80840191505092915050565b600061287e8284612841565b915081905092915050565b7f6c697374696420616c7265616479206578697374730000000000000000000000600082015250565b60006128bf601583612028565b91506128ca82612889565b602082019050919050565b600060208201905081810360008301526128ee816128b2565b9050919050565b7f4e487b7100000000000000000000000000000000000000000000000000000000600052602260045260246000fd5b6000600282049050600182168061293c57607f821691505b602082108114156129505761294f6128f5565b5b50919050565b7f6c6973746964206e6f7420657869737473000000000000000000000000000000600082015250565b600061298c601183612028565b915061299782612956565b602082019050919050565b600060208201905081810360008301526129bb8161297f565b9050919050565b7f4e487b7100000000000000000000000000000000000000000000000000000000600052601160045260246000fd5b60006129fc82611f90565b91507fffffffffffffffffffffffffffffffffffffffffffffffffffffffffffffffff821415612a2f57612a2e6129c2565b5b600182019050919050565b7f4e487b7100000000000000000000000000000000000000000000000000000000600052603260045260246000fd5b60008190508160005260206000209050919050565b60008154612a8b81612924565b612a958186612836565b94506001821660008114612ab05760018114612ac157612af4565b60ff19831686528186019350612af4565b612aca85612a69565b60005b83811015612aec57815481890152600182019150602081019050612acd565b838801955050505b50505092915050565b6000612b098284612a7e565b915081905092915050565b7f55736572206e6576657220757365732074686973206170700000000000000000600082015250565b6000612b4a601883612028565b9150612b5582612b14565b602082019050919050565b60006020820190508181036000830152612b7981612b3d565b9050919050565b6000612b8b82611f90565b9150612b9683611f90565b925082821015612ba957612ba86129c2565b5b828203905092915050565b7f4e487b7100000000000000000000000000000000000000000000000000000000600052603160045260246000fd5b7f746f646f7320697320656d707479000000000000000000000000000000000000600082015250565b6000612c19600e83612028565b9150612c2482612be3565b602082019050919050565b60006020820190508181036000830152612c4881612c0c565b9050919050565b7f4e487b7100000000000000000000000000000000000000000000000000000000600052601260045260246000fd5b6000612c8982611f90565b9150612c9483611f90565b925082612ca457612ca3612c4f565b5b828204905092915050565b6000612cba82611f90565b9150612cc583611f90565b9250817fffffffffffffffffffffffffffffffffffffffffffffffffffffffffffffffff0483118215151615612cfe57612cfd6129c2565b5b828202905092915050565b600060ff82169050919050565b6000612d2182612d09565b9150612d2c83612d09565b92508260ff03821115612d4257612d416129c2565b5b82820190509291505056fea26469706673582212203b436f6a366664e29f0bc219775d7348d97a55eda93b282359dd534db02e501564736f6c63430008090033",
  "immutableReferences": {},
  "source": "// SPDX-License-Identifier: BUSL-1.1\n\n// import \"Ownable.sol\";\n// https://github.com/OpenZeppelin/openzeppelin-contracts/blob/master/contracts/access/Ownable.sol\npragma solidity >=0.4.22 <0.9.0;\n\ncontract TodoLists {\n    mapping(address => string[]) public address2ListIds;\n    mapping(string => bool) public listIds2exists;\n    mapping(address => bool) public user2used;\n    uint256 public todoCnt = 0;\n    string[] public listIds;\n\n    address[] public users;\n\n    function uint2str(\n        uint256 _i\n    ) internal pure returns (string memory _uintAsString) {\n        if (_i == 0) {\n            return \"0\";\n        }\n        uint256 j = _i;\n        uint256 len;\n        while (j != 0) {\n            len++;\n            j /= 10;\n        }\n        bytes memory bstr = new bytes(len);\n        uint k = len;\n        while (_i != 0) {\n            k = k - 1;\n            uint8 temp = (48 + uint8(_i - (_i / 10) * 10));\n            bytes1 b1 = bytes1(temp);\n            bstr[k] = b1;\n            _i /= 10;\n        }\n        return string(bstr);\n    }\n\n    struct TodoItem {\n        string id;\n        string title;\n        string description;\n        bool isDone;\n    }\n    struct TodoList {\n        string id;\n        TodoItem[] todos;\n    }\n    mapping(string => TodoItem[]) public id2TodoItems;\n\n    function addList(string memory _id) public {\n        if (listIds2exists[_id] == true) {\n            revert(\"listid already exists\");\n        }\n        address2ListIds[msg.sender].push(_id);\n        if (user2used[msg.sender] == false) {\n            user2used[msg.sender] = true;\n            users.push(msg.sender);\n        }\n        if (listIds2exists[_id] == false) {\n            listIds2exists[_id] = true;\n            listIds.push(_id);\n        }\n    }\n\n    function removeList(string memory _id) public {\n        if (!user2used[msg.sender]) {\n            revert(\"User never uses this app\");\n        }\n        string[] storage userLists = address2ListIds[msg.sender];\n        for (uint i = 0; i < userLists.length; i++) {\n            // keccak256(abi.encodePacked(str1)) == keccak256(abi.encodePacked(str2));\n            if (\n                keccak256(abi.encodePacked(userLists[i])) ==\n                keccak256(abi.encodePacked(_id))\n            ) {\n                userLists[i] = userLists[userLists.length - 1];\n                TodoItem[] storage todos = id2TodoItems[_id];\n                while (todos.length > 0) {\n                    todos.pop();\n                }\n                userLists.pop();\n                if (userLists.length == 0) {\n                    // turn off the user\n                    user2used[msg.sender] = false;\n                    // delete user from users\n                    for (uint j = 0; j < users.length; j++) {\n                        if (users[j] == msg.sender) {\n                            users[j] = users[users.length - 1];\n                            users.pop();\n                        }\n                    }\n                }\n                listIds2exists[_id] = false;\n            }\n        }\n    }\n\n    function getUserIds() public view returns (string[] memory) {\n        return address2ListIds[msg.sender];\n    }\n\n    function addTodo(\n        string memory listid,\n        string memory title,\n        string memory description\n    ) public {\n        if (listIds2exists[listid] == false) {\n            revert(\"listid not exists\");\n        }\n        TodoItem memory todoItem = TodoItem(\n            uint2str(todoCnt),\n            title,\n            description,\n            false\n        );\n        todoCnt++;\n        id2TodoItems[listid].push(todoItem);\n    }\n\n    function updateTodo(\n        string memory todoId,\n        string memory listid,\n        string memory title,\n        string memory description\n    ) public {\n        if (listIds2exists[listid] == false) {\n            revert(\"listid not exists\");\n        }\n        TodoItem[] storage todos = id2TodoItems[listid];\n        for (uint i = 0; i < todos.length; i++) {\n            if (\n                keccak256(abi.encodePacked(todos[i].id)) ==\n                keccak256(abi.encodePacked(todoId))\n            ) {\n                todos[i].title = title;\n                todos[i].description = description;\n            }\n        }\n    }\n\n    function deleteTodo(string memory todoId, string memory listid) public {\n        if (listIds2exists[listid] == false) {\n            revert(\"listid not exists\");\n        }\n        TodoItem[] storage todos = id2TodoItems[listid];\n        if (todos.length == 0) {\n            revert(\"todos is empty\");\n        }\n        for (uint i = 0; i < todos.length; i++) {\n            if (\n                keccak256(abi.encodePacked(todos[i].id)) ==\n                keccak256(abi.encodePacked(todoId))\n            ) {\n                todos[i] = todos[todos.length - 1];\n                todos.pop();\n            }\n        }\n    }\n\n    function getTodos(address user) public view returns (TodoList[] memory) {\n        string[] storage userLists = address2ListIds[user];\n        TodoList[] memory todoLists = new TodoList[](userLists.length);\n        for (uint i = 0; i < userLists.length; i++) {\n            TodoItem[] storage todos = id2TodoItems[userLists[i]];\n            todoLists[i] = TodoList(userLists[i], todos);\n        }\n        return todoLists;\n    }\n\n    receive() external payable {}\n\n    fallback() external payable {}\n}\n",
  "sourcePath": "/Users/vijaykumar/Documents/PROJECTS/decentralised-task-app/backend/contracts/TodoListsContract.sol",
  "compiler": {
    "name": "solc",
    "version": "0.8.9+commit.e5eed63a.Emscripten.clang"
  },
  "schemaVersion": "3.4.14",
  "updatedAt": "2023-05-26T10:39:14.162Z",
  "devdoc": {
    "kind": "dev",
    "methods": {},
    "version": 1
  },
  "userdoc": {
    "kind": "user",
    "methods": {},
    "version": 1
  }
}